{
  "contractName": "History",
  "abi": [
    {
      "constant": false,
      "inputs": [
        {
          "name": "_name",
          "type": "bytes32"
        },
        {
          "name": "_groupName",
          "type": "bytes32"
        },
        {
          "name": "_accountNumber",
          "type": "bytes32"
        },
        {
          "name": "_accounts",
          "type": "uint256"
        },
        {
          "name": "_useHistory",
          "type": "bytes32"
        },
        {
          "name": "_date",
          "type": "bytes32"
        }
      ],
      "name": "transfer",
      "outputs": [],
      "payable": false,
      "stateMutability": "nonpayable",
      "type": "function"
    },
    {
      "constant": true,
      "inputs": [],
      "name": "get",
      "outputs": [
        {
          "name": "",
          "type": "bytes32"
        },
        {
          "name": "",
          "type": "bytes32"
        },
        {
          "name": "",
          "type": "bytes32"
        },
        {
          "name": "",
          "type": "uint256"
        },
        {
          "name": "",
          "type": "bytes32"
        },
        {
          "name": "",
          "type": "bytes32"
        }
      ],
      "payable": false,
      "stateMutability": "view",
      "type": "function"
    }
  ],
  "bytecode": "0x608060405234801561001057600080fd5b50610169806100206000396000f3fe608060405234801561001057600080fd5b50600436106100365760003560e01c80634fac00141461003b5780636d4ce63c1461009b575b600080fd5b610099600480360360c081101561005157600080fd5b810190808035906020019092919080359060200190929190803590602001909291908035906020019092919080359060200190929190803590602001909291905050506100dc565b005b6100a361010e565b60405180878152602001868152602001858152602001848152602001838152602001828152602001965050505050505060405180910390f35b856000819055508460018190555083600281905550826003819055508160048190555080600581905550505050505050565b60008060008060008060005460015460025460035460045460055495509550955095509550955090919293949556fea165627a7a72305820aa6486fa79c010b7dfbea08b4e32898a9440fa5c708d021d424bbce970066fff0029",
  "source": "pragma solidity ^0.5.0;\r\n//이력 관리용 계약. (OwnerManagement의 기능 사용을 위해 상속)\r\ncontract History {\r\n  \r\n  bytes32 name; //후원자이름\r\n  bytes32 groupName; //동아리이름\r\n  bytes32 accountNumber; //계좌번호\r\n  uint accounts; //금액 (후원금(+), 지출금(-))\r\n  bytes32 useHistory; //사용내역\r\n  bytes32 date; //날짜\r\n\r\n  //send()\r\n  function transfer(bytes32 _name, bytes32 _groupName, bytes32 _accountNumber, uint _accounts, bytes32 _useHistory, bytes32 _date) public {\r\n    name = _name;\r\n    groupName = _groupName;\r\n    accountNumber = _accountNumber;\r\n    accounts = _accounts;\r\n    useHistory = _useHistory;\r\n    date = _date;\r\n  }\r\n\r\n  //call()\r\n  function get() view public returns (bytes32, bytes32, bytes32, uint, bytes32, bytes32) {\r\n    //constant나 view로 되어있으면 블록에 저장 안됨.(읽기만 가능)\r\n    return (name, groupName, accountNumber, accounts, useHistory, date); \r\n  }\r\n\r\n}",
  "sourcePath": "C:/NODEWORK/Node_Project/Team_Project/SH_management/contracts/History.sol",
  "compiler": {
    "name": "solc",
    "version": "0.5.8+commit.23d335f2.Emscripten.clang"
  },
  "schemaVersion": "3.0.16",
  "updatedAt": "2019-11-01T07:07:36.727Z",
  "devdoc": {
    "methods": {}
  },
  "userdoc": {
    "methods": {}
  }
}