{
  "contractName": "History",
  "abi": [
    {
      "constant": false,
      "inputs": [
        {
          "name": "_name",
          "type": "bytes32"
        },
        {
          "name": "_groupName",
          "type": "bytes32"
        },
        {
          "name": "_accountNumber",
          "type": "bytes32"
        },
        {
          "name": "_accounts",
          "type": "uint16"
        },
        {
          "name": "_useHistory",
          "type": "bytes32"
        },
        {
          "name": "_date",
          "type": "bytes32"
        }
      ],
      "name": "transfer",
      "outputs": [],
      "payable": false,
      "stateMutability": "nonpayable",
      "type": "function"
    },
    {
      "constant": false,
      "inputs": [
        {
          "name": "_name",
          "type": "bytes32"
        }
      ],
      "name": "search",
      "outputs": [
        {
          "name": "",
          "type": "bytes32[]"
        },
        {
          "name": "",
          "type": "bytes32[]"
        },
        {
          "name": "",
          "type": "bytes32[]"
        },
        {
          "name": "",
          "type": "uint16[]"
        },
        {
          "name": "",
          "type": "bytes32[]"
        },
        {
          "name": "",
          "type": "bytes32[]"
        }
      ],
      "payable": false,
      "stateMutability": "nonpayable",
      "type": "function"
    },
    {
      "constant": true,
      "inputs": [],
      "name": "get",
      "outputs": [
        {
          "name": "",
          "type": "bytes32[]"
        },
        {
          "name": "",
          "type": "bytes32[]"
        },
        {
          "name": "",
          "type": "bytes32[]"
        },
        {
          "name": "",
          "type": "uint16[]"
        },
        {
          "name": "",
          "type": "bytes32[]"
        },
        {
          "name": "",
          "type": "bytes32[]"
        }
      ],
      "payable": false,
      "stateMutability": "view",
      "type": "function"
    }
  ],
  "bytecode": "0x608060405234801561001057600080fd5b50610d82806100206000396000f3fe608060405234801561001057600080fd5b50600436106100415760003560e01c806331b8a697146100465780636d4ce63c14610231578063e4894612146103f8575b600080fd5b6100726004803603602081101561005c57600080fd5b810190808035906020019092919050505061045c565b6040518080602001806020018060200180602001806020018060200187810387528d818151815260200191508051906020019060200280838360005b838110156100c95780820151818401526020810190506100ae565b5050505090500187810386528c818151815260200191508051906020019060200280838360005b8381101561010b5780820151818401526020810190506100f0565b5050505090500187810385528b818151815260200191508051906020019060200280838360005b8381101561014d578082015181840152602081019050610132565b5050505090500187810384528a818151815260200191508051906020019060200280838360005b8381101561018f578082015181840152602081019050610174565b50505050905001878103835289818151815260200191508051906020019060200280838360005b838110156101d15780820151818401526020810190506101b6565b50505050905001878103825288818151815260200191508051906020019060200280838360005b838110156102135780820151818401526020810190506101f8565b505050509050019c5050505050505050505050505060405180910390f35b6102396108fb565b6040518080602001806020018060200180602001806020018060200187810387528d818151815260200191508051906020019060200280838360005b83811015610290578082015181840152602081019050610275565b5050505090500187810386528c818151815260200191508051906020019060200280838360005b838110156102d25780820151818401526020810190506102b7565b5050505090500187810385528b818151815260200191508051906020019060200280838360005b838110156103145780820151818401526020810190506102f9565b5050505090500187810384528a818151815260200191508051906020019060200280838360005b8381101561035657808201518184015260208101905061033b565b50505050905001878103835289818151815260200191508051906020019060200280838360005b8381101561039857808201518184015260208101905061037d565b50505050905001878103825288818151815260200191508051906020019060200280838360005b838110156103da5780820151818401526020810190506103bf565b505050509050019c5050505050505050505050505060405180910390f35b61045a600480360360c081101561040e57600080fd5b81019080803590602001909291908035906020019092919080359060200190929190803561ffff1690602001909291908035906020019092919080359060200190929190505050610b38565b005b606080606080606080600c60006104739190610cc3565b600d60006104819190610cc3565b600e600061048f9190610cc3565b600f600061049d9190610ce4565b601060006104ab9190610cc3565b601160006104b99190610cc3565b60008090505b6006805490508110156106c557600681815481106104d957fe5b90600052602060002001548814156106b857600c600682815481106104fa57fe5b90600052602060002001549080600181540180825580915050906001820390600052602060002001600090919290919091505550600d6007828154811061053d57fe5b90600052602060002001549080600181540180825580915050906001820390600052602060002001600090919290919091505550600e6008828154811061058057fe5b90600052602060002001549080600181540180825580915050906001820390600052602060002001600090919290919091505550600f600982815481106105c357fe5b90600052602060002090601091828204019190066002029054906101000a900461ffff16908060018154018082558091505090600182039060005260206000209060109182820401919006600202909192909190916101000a81548161ffff021916908361ffff160217905550506010600a828154811061064057fe5b906000526020600020015490806001815401808255809150509060018203906000526020600020016000909192909190915055506011600b828154811061068357fe5b906000526020600020015490806001815401808255809150509060018203906000526020600020016000909192909190915055505b80806001019150506104bf565b50600c600d600e600f601060118580548060200260200160405190810160405280929190818152602001828054801561071d57602002820191906000526020600020905b815481526020019060010190808311610709575b505050505095508480548060200260200160405190810160405280929190818152602001828054801561076f57602002820191906000526020600020905b81548152602001906001019080831161075b575b50505050509450838054806020026020016040519081016040528092919081815260200182805480156107c157602002820191906000526020600020905b8154815260200190600101908083116107ad575b505050505093508280548060200260200160405190810160405280929190818152602001828054801561083b57602002820191906000526020600020906000905b82829054906101000a900461ffff1661ffff16815260200190600201906020826001010492830192600103820291508084116108025790505b505050505092508180548060200260200160405190810160405280929190818152602001828054801561088d57602002820191906000526020600020905b815481526020019060010190808311610879575b50505050509150808054806020026020016040519081016040528092919081815260200182805480156108df57602002820191906000526020600020905b8154815260200190600101908083116108cb575b5050505050905095509550955095509550955091939550919395565b6060806060806060806006600760086009600a600b8580548060200260200160405190810160405280929190818152602001828054801561095b57602002820191906000526020600020905b815481526020019060010190808311610947575b50505050509550848054806020026020016040519081016040528092919081815260200182805480156109ad57602002820191906000526020600020905b815481526020019060010190808311610999575b50505050509450838054806020026020016040519081016040528092919081815260200182805480156109ff57602002820191906000526020600020905b8154815260200190600101908083116109eb575b5050505050935082805480602002602001604051908101604052809291908181526020018280548015610a7957602002820191906000526020600020906000905b82829054906101000a900461ffff1661ffff1681526020019060020190602082600101049283019260010382029150808411610a405790505b5050505050925081805480602002602001604051908101604052809291908181526020018280548015610acb57602002820191906000526020600020905b815481526020019060010190808311610ab7575b5050505050915080805480602002602001604051908101604052809291908181526020018280548015610b1d57602002820191906000526020600020905b815481526020019060010190808311610b09575b50505050509050955095509550955095509550909192939495565b85600081905550600660005490806001815401808255809150509060018203906000526020600020016000909192909190915055508460018190555060076001549080600181540180825580915050906001820390600052602060002001600090919290919091505550836002819055506008600254908060018154018082558091505090600182039060005260206000200160009091929091909150555082600360006101000a81548161ffff021916908361ffff1602179055506009600360009054906101000a900461ffff16908060018154018082558091505090600182039060005260206000209060109182820401919006600202909192909190916101000a81548161ffff021916908361ffff1602179055505081600481905550600a600454908060018154018082558091505090600182039060005260206000200160009091929091909150555080600581905550600b6005549080600181540180825580915050906001820390600052602060002001600090919290919091505550505050505050565b5080546000825590600052602060002090810190610ce19190610d0c565b50565b50805460008255600f016010900490600052602060002090810190610d099190610d31565b50565b610d2e91905b80821115610d2a576000816000905550600101610d12565b5090565b90565b610d5391905b80821115610d4f576000816000905550600101610d37565b5090565b9056fea165627a7a72305820325e9074bcd3e0f0157cb7183f4ed7bca9aca0350c8c2eee9543a589485cc8e30029",
  "source": "pragma solidity ^0.5.0;\n\ncontract History {\n  \n  bytes32 name; //후원자이름\n  bytes32 groupName; //동아리이름\n  bytes32 accountNumber; //계좌번호\n  uint16 accounts; //금액 (후원금(+), 지출금(-))\n  bytes32 useHistory; //사용내역\n  bytes32 date; //날짜\n\n  bytes32[] nameArray; //후원자이름 배열(리스트)\n  bytes32[] groupArray; //동아리이름 배열(리스트)\n  bytes32[] accountNumArray; //계좌번호 배열(리스트)\n  uint16[] accountsArray; //금액 배열\n  bytes32[] historyArray; //사용내역 배열\n  bytes32[] dateArray; //날짜 배열\n\n  bytes32[] nameResult;\n  bytes32[] groupResult;\n  bytes32[] accountNumResult;\n  uint16[] accountsResult;\n  bytes32[] historyResult;\n  bytes32[] dateResult;\n\n  //send()\n  function transfer(bytes32 _name, bytes32 _groupName, bytes32 _accountNumber, uint16 _accounts, bytes32 _useHistory, bytes32 _date) public {\n    name = _name;\n    nameArray.push(name);\n    groupName = _groupName;\n    groupArray.push(groupName);\n    accountNumber = _accountNumber;\n    accountNumArray.push(accountNumber);\n    accounts = _accounts;\n    accountsArray.push(accounts);\n    useHistory = _useHistory;\n    historyArray.push(useHistory);\n    date = _date;\n    dateArray.push(date);\n  }\n\n  function search(bytes32 _name) public returns (bytes32[] memory, bytes32[] memory, bytes32[] memory, uint16[] memory, bytes32[] memory, bytes32[] memory){\n    delete nameResult;\n    delete groupResult;\n    delete accountNumResult;\n    delete accountsResult;\n    delete historyResult;\n    delete dateResult;\n\n    for(uint i=0; i<nameArray.length; i++){\n      if(_name == nameArray[i]){\n        nameResult.push(nameArray[i]);    \n        groupResult.push(groupArray[i]);\n        accountNumResult.push(accountNumArray[i]);\n        accountsResult.push(accountsArray[i]);\n        historyResult.push(historyArray[i]);\n        dateResult.push(dateArray[i]);\n      }\n    }\n    return (nameResult, groupResult, accountNumResult, accountsResult, historyResult, dateResult);\n\n  }\n\n  //call()\n  function get() view public returns (bytes32[] memory, bytes32[] memory, bytes32[] memory, uint16[] memory, bytes32[] memory, bytes32[] memory) {\n    //constant나 view로 되어있으면 블록에 저장 안됨.(읽기만 가능)\n    return (nameArray, groupArray, accountNumArray, accountsArray, historyArray, dateArray); \n  }\n\n}",
  "sourcePath": "C:/NODEWORK/Node_Project/Team_Project/SH_management/contracts/History.sol",
  "compiler": {
    "name": "solc",
    "version": "0.5.8+commit.23d335f2.Emscripten.clang"
  },
  "schemaVersion": "3.0.16",
  "updatedAt": "2019-11-04T02:13:09.293Z",
  "devdoc": {
    "methods": {}
  },
  "userdoc": {
    "methods": {}
  }
}