{
  "contractName": "History",
  "abi": [
    {
      "constant": false,
      "inputs": [
        {
          "name": "_name",
          "type": "bytes32"
        },
        {
          "name": "_groupName",
          "type": "bytes32"
        },
        {
          "name": "_accountNumber",
          "type": "bytes32"
        },
        {
          "name": "_accounts",
          "type": "uint16"
        },
        {
          "name": "_useHistory",
          "type": "bytes32"
        },
        {
          "name": "_date",
          "type": "bytes32"
        }
      ],
      "name": "transfer",
      "outputs": [],
      "payable": false,
      "stateMutability": "nonpayable",
      "type": "function"
    },
    {
      "constant": true,
      "inputs": [],
      "name": "get",
      "outputs": [
        {
          "name": "",
          "type": "bytes32[]"
        },
        {
          "name": "",
          "type": "bytes32[]"
        },
        {
          "name": "",
          "type": "bytes32[]"
        },
        {
          "name": "",
          "type": "uint16[]"
        },
        {
          "name": "",
          "type": "bytes32[]"
        },
        {
          "name": "",
          "type": "bytes32[]"
        }
      ],
      "payable": false,
      "stateMutability": "view",
      "type": "function"
    }
  ],
  "bytecode": "0x608060405234801561001057600080fd5b5061065a806100206000396000f3fe608060405234801561001057600080fd5b50600436106100365760003560e01c80636d4ce63c1461003b578063e489461214610202575b600080fd5b610043610266565b6040518080602001806020018060200180602001806020018060200187810387528d818151815260200191508051906020019060200280838360005b8381101561009a57808201518184015260208101905061007f565b5050505090500187810386528c818151815260200191508051906020019060200280838360005b838110156100dc5780820151818401526020810190506100c1565b5050505090500187810385528b818151815260200191508051906020019060200280838360005b8381101561011e578082015181840152602081019050610103565b5050505090500187810384528a818151815260200191508051906020019060200280838360005b83811015610160578082015181840152602081019050610145565b50505050905001878103835289818151815260200191508051906020019060200280838360005b838110156101a2578082015181840152602081019050610187565b50505050905001878103825288818151815260200191508051906020019060200280838360005b838110156101e45780820151818401526020810190506101c9565b505050509050019c5050505050505050505050505060405180910390f35b610264600480360360c081101561021857600080fd5b81019080803590602001909291908035906020019092919080359060200190929190803561ffff16906020019092919080359060200190929190803590602001909291905050506104a3565b005b6060806060806060806006600760086009600a600b858054806020026020016040519081016040528092919081815260200182805480156102c657602002820191906000526020600020905b8154815260200190600101908083116102b2575b505050505095508480548060200260200160405190810160405280929190818152602001828054801561031857602002820191906000526020600020905b815481526020019060010190808311610304575b505050505094508380548060200260200160405190810160405280929190818152602001828054801561036a57602002820191906000526020600020905b815481526020019060010190808311610356575b50505050509350828054806020026020016040519081016040528092919081815260200182805480156103e457602002820191906000526020600020906000905b82829054906101000a900461ffff1661ffff16815260200190600201906020826001010492830192600103820291508084116103ab5790505b505050505092508180548060200260200160405190810160405280929190818152602001828054801561043657602002820191906000526020600020905b815481526020019060010190808311610422575b505050505091508080548060200260200160405190810160405280929190818152602001828054801561048857602002820191906000526020600020905b815481526020019060010190808311610474575b50505050509050955095509550955095509550909192939495565b85600081905550600660005490806001815401808255809150509060018203906000526020600020016000909192909190915055508460018190555060076001549080600181540180825580915050906001820390600052602060002001600090919290919091505550836002819055506008600254908060018154018082558091505090600182039060005260206000200160009091929091909150555082600360006101000a81548161ffff021916908361ffff1602179055506009600360009054906101000a900461ffff16908060018154018082558091505090600182039060005260206000209060109182820401919006600202909192909190916101000a81548161ffff021916908361ffff1602179055505081600481905550600a600454908060018154018082558091505090600182039060005260206000200160009091929091909150555080600581905550600b600554908060018154018082558091505090600182039060005260206000200160009091929091909150555050505050505056fea165627a7a723058207d752e98a88b83169a3ce34268b7182a45477472c3764e5c17e5efe037b6b2790029",
  "source": "pragma solidity ^0.5.0;\r\n\r\ncontract History {\r\n  \r\n  bytes32 name; //후원자이름\r\n  bytes32 groupName; //동아리이름\r\n  bytes32 accountNumber; //계좌번호\r\n  uint16 accounts; //금액 (후원금(+), 지출금(-))\r\n  bytes32 useHistory; //사용내역\r\n  bytes32 date; //날짜\r\n\r\n  bytes32[] nameArray; //후원자이름 배열(리스트)\r\n  bytes32[] groupArray; //동아리이름 배열(리스트)\r\n  bytes32[] accountNumArray; //계좌번호 배열(리스트)\r\n  uint16[] accountsArray; //금액 배열\r\n  bytes32[] historyArray; //사용내역 배열\r\n  bytes32[] dateArray; //날짜 배열\r\n\r\n  // bytes32[] nameResult;\r\n  // bytes32[] groupResult;\r\n  // bytes32[] accountNumResult;\r\n  // uint16[] accountsResult;\r\n  // bytes32[] historyResult;\r\n  // bytes32[] dateResult;\r\n\r\n  //send()\r\n  function transfer(bytes32 _name, bytes32 _groupName, bytes32 _accountNumber, uint16 _accounts, bytes32 _useHistory, bytes32 _date) public {\r\n    name = _name;\r\n    nameArray.push(name);\r\n    groupName = _groupName;\r\n    groupArray.push(groupName);\r\n    accountNumber = _accountNumber;\r\n    accountNumArray.push(accountNumber);\r\n    accounts = _accounts;\r\n    accountsArray.push(accounts);\r\n    useHistory = _useHistory;\r\n    historyArray.push(useHistory);\r\n    date = _date;\r\n    dateArray.push(date);\r\n  }\r\n\r\n  // function search(bytes32 _name) public returns (bytes32[] memory, bytes32[] memory, bytes32[] memory, uint16[] memory, bytes32[] memory, bytes32[] memory){\r\n  //   delete nameResult;\r\n  //   delete groupResult;\r\n  //   delete accountNumResult;\r\n  //   delete accountsResult;\r\n  //   delete historyResult;\r\n  //   delete dateResult;\r\n\r\n  //   for(uint i=0; i<nameArray.length; i++){\r\n  //     if(_name == nameArray[i]){\r\n  //       nameResult.push(nameArray[i]);    \r\n  //       groupResult.push(groupArray[i]);\r\n  //       accountNumResult.push(accountNumArray[i]);\r\n  //       accountsResult.push(accountsArray[i]);\r\n  //       historyResult.push(historyArray[i]);\r\n  //       dateResult.push(dateArray[i]);\r\n  //     }\r\n  //   }\r\n  //   return (nameResult, groupResult, accountNumResult, accountsResult, historyResult, dateResult);\r\n\r\n  // }\r\n\r\n  //call()\r\n  function get() view public returns (bytes32[] memory, bytes32[] memory, bytes32[] memory, uint16[] memory, bytes32[] memory, bytes32[] memory) {\r\n    //constant나 view로 되어있으면 블록에 저장 안됨.(읽기만 가능)\r\n    return (nameArray, groupArray, accountNumArray, accountsArray, historyArray, dateArray); \r\n  }\r\n\r\n}",
  "sourcePath": "C:/Project/SH_management/contracts/History.sol",
  "compiler": {
    "name": "solc",
    "version": "0.5.8+commit.23d335f2.Emscripten.clang"
  },
  "schemaVersion": "3.0.17",
  "updatedAt": "2019-11-12T04:41:58.572Z",
  "networkType": "ethereum",
  "devdoc": {
    "methods": {}
  },
  "userdoc": {
    "methods": {}
  }
}